:100000000C94A6000C94B8000C94B8000C94B800A2
:100010000C94B8000C94B8000C94B8000C94B80080
:100020000C94B8000C94B8000C94B8000C94B80070
:100030000C94B8000C94B8000C94B8000C94B80060
:100040000C94E2000C94B8000C94B8000C94B80026
:100050000C94B8000C94B8000C94B8000C94B80040
:100060000C94B8000C94B8000C94B8000C94B80030
:100070000C94B8000C94B8000C94B8000C94B80020
:100080000C94B8000C94B8000C94B8000000000A5E
:100090000B0C000000000000010405060000000039
:1000A0000000000000000000000000000000000050
:1000B0000000000000000000000000000000000040
:1000C00000010204081020408001020408102040B2
:1000D000800810010204081020408001020102047F
:1000E0000810204080048040201008040201010212
:1000F00004081020408005050505050505050202D8
:1001000002020202020207070404040404040404B5
:1001100007070303030303030303070101010101AD
:10012000010101060606060606060600003B003829
:10013000003500320023006200650000003A0037FD
:1001400000340031002200610064000011241FBE51
:10015000CFEFD0E1DEBFCDBF21E0A0E0B1E001C034
:100160001D92A930B207E1F70E94D3000C9451020E
:100170000C94000061E088E00C94E00161E088E00C
:100180000E941C0268EE73E080E090E00E94520141
:1001900060E088E00E941C0268EE73E080E090E07E
:1001A0000C94520108950E948B010E94D2000E947B
:1001B000BA00C0E0D0E00E94BE002097E1F30E94A8
:1001C0000000F9CF1F920F920FB60F9211242F93B8
:1001D0003F938F939F93AF93BF9380910101909131
:1001E0000201A0910301B09104013091000120E3CC
:1001F000230F2D3758F54096A11DB11D2093000106
:100200008093010190930201A0930301B093040134
:100210008091050190910601A0910701B09108011C
:100220000196A11DB11D8093050190930601A09335
:100230000701B0930801BF91AF919F918F913F91BA
:100240002F910F900FBE0F901F90189523EB230F47
:100250004196A11DB11DD2CF3FB7F8948091050101
:1002600090910601A0910701B091080122B706B64E
:1002700000FE05C02F3F19F00196A11DB11D3FBF23
:10028000BA2FA92F982F8827BC01CD01620F711DAD
:10029000811D911D46E0660F771F881F991F4A95A3
:1002A000D1F708958F929F92AF92BF92CF92DF9233
:1002B000EF92FF926B017C010E942C014B015C01CB
:1002C000C114D104E104F104E9F00E944A020E9441
:1002D0002C01681979098A099B09683E73408105D8
:1002E000910570F321E0C21AD108E108F10888EE07
:1002F000880E83E0981EA11CB11CC114D104E10436
:10030000F10429F7FF90EF90DF90CF90BF90AF906E
:100310009F908F900895789483B78C6483BF87B73C
:10032000816087BF82E08EBD8FB581608FBD85B54E
:10033000846085BD85B5806485BDEAE8F0E0808194
:1003400083608083EBE8F0E080818160808383E8D4
:1003500086B91AB8089581508C3088F5E82FF0E0FE
:10036000EC54FE4F0C944B02DC01DC01DF01C001B8
:10037000C401C701CA01DF01DF01CE01D401D801E8
:100380008FB58F778FBD08958FB58F7DFBCF8FB5DC
:10039000877FF8CF85B58F7D85BD089580918B00CF
:1003A0008F7780938B00089580918B008F7DF9CF9C
:1003B00080918B00877FF5CF83B78F7D83BF0895B2
:1003C000CF93DF9390E0FC01EF53FF4F24918A50CD
:1003D0009F4FFC0184918823C9F090E0880F991FFA
:1003E000FC01E55CFE4FA591B491FC01E55DFE4F7B
:1003F000C591D49161110DC09FB7F8948C9120954F
:1004000082238C938881282328839FBFDF91CF91FB
:100410000895623051F49FB7F8943C91822F8095F3
:1004200083238C93E8812E2BEFCF8FB7F894EC9138
:100430002E2B2C938FBFEACF1F93CF93DF93282FC0
:1004400030E0F901E457FF4F8491F901EF53FF4F7A
:10045000D491F901EA50FF4FC491CC23A9F0162F93
:1004600081110E94AB01EC2FF0E0EE0FFF1FE55D64
:10047000FE4FA591B4918FB7F894EC91111108C07B
:10048000D095DE23DC938FBFDF91CF911F9108952C
:10049000DE2BF8CF0895EE0FFF1F0590F491E02DAD
:0604A0000994F894FFCF5F
:00000001FF
