:100000000C94A7000C94CF000C94CF000C94CF005C
:100010000C94CF000C94CF000C94CF000C94CF0024
:100020000C94CF000C94CF000C94CF000C94CF0014
:100030000C94CF000C94CF000C94CF000C94CF0004
:100040000C943D030C94CF000C9440020C9472026B
:100050000C94CF000C94CF000C94CF000C94CF00E4
:100060000C94CF000C94CF000C94CF000C94CF00D4
:100070000C94CF000C94CF000C94CF000C94CF00C4
:100080000C94CF000C94CF000C94CF000000000A19
:100090000B0C000000000000010405060000000039
:1000A0000000000000000000000000000000000050
:1000B0000000000000000000000000000000000040
:1000C00000010204081020408001020408102040B2
:1000D000800810010204081020408001020102047F
:1000E0000810204080048040201008040201010212
:1000F00004081020408005050505050505050202D8
:1001000002020202020207070404040404040404B5
:1001100007070303030303030303070101010101AD
:10012000010101060606060606060600003B003829
:10013000003500320023006200650000003A0037FD
:10014000003400310022006100640000A20211248A
:100150001FBECFEFD0E1DEBFCDBF12E0A0E0B1E027
:10016000E0EAF9E002C005900D92A23FB107D9F78D
:1001700023E0A2EFB2E001C01D92A839B207E1F777
:1001800010E0C7EAD0E004C02197FE010E94C80435
:10019000C63AD107C9F70E942E030C94CE040C94E2
:1001A000000061E088E00E943B0426E040E855E260
:1001B00060E070E082EF92E00C94EE0161E088E094
:1001C0000E94770460E071E082EF92E00E941603E3
:1001D00064E670E080E090E00E94AD0360E088E0BB
:1001E0000E94770464E670E080E090E00E94AD0336
:1001F00068EC72E082EF92E00E94160382EF92E0D8
:100200000E940E01892B49F082EF92E00E942801A2
:10021000682F82EF92E00C940B030895FC01918DFE
:10022000228D892F90E0805C9F4F821B91098F73F4
:1002300099270895FC01918D828D981731F0828D58
:10024000E80FF11D858D90E008958FEF9FEF0895E1
:10025000FC01918D828D981761F0A28DAE0FBF2F9A
:10026000B11D5D968C91928D9F5F9F73928F90E0F0
:1002700008958FEF9FEF0895FC01538D448D252F36
:1002800030E0842F90E0821B930B541710F0CF9630
:1002900008950197089588E992E0892B49F080E05C
:1002A00090E0892B29F00E94980281110E940000A1
:1002B00080E090E0892B49F080E090E0892B29F0E4
:1002C0000E94000081110C9400000895FC01A48D8F
:1002D000A80FB92FB11DA35ABF4F2C91848D90E068
:1002E00001968F739927848FA689B7892C93A0894B
:1002F000B1898C9180648C93938D848D981306C002
:100300000288F389E02D80818F7D80830895CF93CB
:10031000DF93EC01888D8823B9F0AA89BB89E8892D
:10032000F9898C9185FD03C0808186FD0DC00FB6D3
:1003300007FCF7CF8C9185FFF2CF808185FFEDCF51
:10034000CE010E946601E9CFDF91CF910895EF922F
:10035000FF920F931F93CF93DF93EC0181E0888F7F
:100360009B8D8C8D981316C0E889F989808185FF53
:1003700011C0EE89FF896083E889F98980818064F2
:10038000808381E090E0DF91CF911F910F91FF90EA
:10039000EF900895F62E0B8D10E00F5F1F4F0F7337
:1003A0001127E02E8C8D8E110CC00FB607FCFACFF2
:1003B000E889F989808185FFF5CFCE010E94660129
:1003C000F1CFEB8DEC0FFD2FF11DE35AFF4FF082C3
:1003D0000B8FEA89FB8980818062D2CFCF92DF9236
:1003E000EF92FF921F93CF93DF93EC016A017B01A1
:1003F000122F60E970ED83E090E0A70196010E9462
:10040000A604215031094109510956954795379560
:100410002795E889F98982E08083211580E13807F2
:1004200098F0E889F989108268E478EE81E090E03C
:10043000A70196010E94A6042150310941095109E2
:100440005695479537952795EC85FD853083EE8544
:10045000FF852083188EEC89FD891083EA89FB894A
:10046000808188698083EA89FB8980818F7D808390
:10047000DF91CF911F91FF90EF90DF90CF90089583
:100480001F920F920FB60F9211242F938F939F9369
:10049000EF93FF93E0910203F09103038081E091D9
:1004A0000803F091090382FD1BC0908180910B032A
:1004B0008F5F8F7320910C03821741F0E0910B0343
:1004C000F0E0EE50FD4F958F80930B03FF91EF917D
:1004D0009F918F912F910F900FBE0F901F901895A5
:1004E0008081F4CF1F920F920FB60F9211242F9399
:1004F0003F934F935F936F937F938F939F93AF93AC
:10050000BF93EF93FF9382EF92E00E946601FF9109
:10051000EF91BF91AF919F918F917F916F915F917B
:100520004F913F912F910F900FBE0F901F901895F4
:1005300082EF92E00E940E0121E0892B09F420E075
:10054000822F0895E2EFF2E01382128288EE93E0A8
:10055000A0E0B0E084839583A683B78380EE92E029
:100560009183808380E990E09587848789E290E099
:10057000978786878BE290E0918B808B8AE290E070
:10058000938B828B85E990E0958B848B8CE290E055
:10059000978B868B118E128E138E148E0895AF92C8
:1005A000BF92CF92DF92EF92FF920F931F93CF9360
:1005B000DF936C017B018B01040F151FEB015E01C2
:1005C000AE18BF08C017D10759F06991D601ED9157
:1005D000FC910190F081E02DC6010995892B79F7F6
:1005E000C501DF91CF911F910F91FF90EF90DF90A8
:1005F000CF90BF90AF900895FB0101900020E9F7E4
:100600003197AF01461B570BDC01ED91FC91028045
:10061000F381E02D0994DC01ED91FC910190F081D2
:10062000E02D09946EEE72E00C94FC020F931F9380
:10063000CF93DF938C01D0E0C0E06115710519F014
:100640000E94FC02EC01C8010E9412038C0F9D1F46
:10065000DF91CF911F910F91089508950E94E603B5
:100660000E942D030E94D100CBE4D1E00E94DE0065
:100670002097E1F30E944B01F9CF1F920F920FB622
:100680000F9211242F933F938F939F93AF93BF9318
:100690008091900390919103A0919203B091930364
:1006A00030918F0320E3230F2D3758F54096A11D7D
:1006B000B11D20938F038093900390939103A09397
:1006C0009203B09393038091940390919503A0912A
:1006D0009603B09197030196A11DB11D80939403D9
:1006E00090939503A0939603B0939703BF91AF9116
:1006F0009F918F913F912F910F900FBE0F901F9060
:10070000189523EB230F4196A11DB11DD2CF3FB702
:10071000F8948091940390919503A0919603B091E1
:10072000970322B706B600FE05C02F3F19F00196C9
:10073000A11DB11D3FBFBA2FA92F982F8827BC013B
:10074000CD01620F711D811D911D46E0660F771F5F
:10075000881F991F4A95D1F708958F929F92AF9263
:10076000BF92CF92DF92EF92FF926B017C010E94C9
:1007700087034B015C01C114D104E104F104E9F0E9
:100780000E94A5040E948703681979098A099B09B8
:10079000683E73408105910570F321E0C21AD108CB
:1007A000E108F10888EE880E83E0981EA11CB11CB8
:1007B000C114D104E104F10429F7FF90EF90DF9018
:1007C000CF90BF90AF909F908F900895789483B70B
:1007D0008C6483BF87B7816087BF82E08EBD8FB591
:1007E00081608FBD85B5846085BD85B5806485BD1C
:1007F000EAE8F0E0808183608083EBE8F0E08081CC
:100800008160808383E886B91AB8089581508C305E
:1008100088F5E82FF0E0E15FFB4F0C94C804370443
:1008200037043A041B041F04220425043A043A0442
:1008300029042F0433048FB58F778FBD08958FB5AA
:100840008F7DFBCF8FB5877FF8CF85B58F7D85BD39
:10085000089580918B008F7780938B00089580910D
:100860008B008F7DF9CF80918B00877FF5CF83B789
:100870008F7D83BF0895CF93DF9390E0FC01EF530A
:10088000FF4F24918A509F4FFC0184918823C9F027
:1008900090E0880F991FFC01E55CFE4FA591B49193
:1008A000FC01E55DFE4FC591D49161110DC09FB76C
:1008B000F8948C91209582238C9388812823288317
:1008C0009FBFDF91CF910895623051F49FB7F894A4
:1008D0003C91822F809583238C93E8812E2BEFCF40
:1008E0008FB7F894EC912E2B2C938FBFEACF1F93E8
:1008F000CF93DF93282F30E0F901E457FF4F849125
:10090000F901EF53FF4FD491F901EA50FF4FC49121
:10091000CC23A9F0162F81110E940604EC2FF0E0E1
:10092000EE0FFF1FE55DFE4FA591B4918FB7F894D0
:10093000EC91111108C0D095DE23DC938FBFDF91BD
:10094000CF911F910895DE2BF8CF0895A1E21A2EC2
:10095000AA1BBB1BFD010DC0AA1FBB1FEE1FFF1F63
:10096000A217B307E407F50720F0A21BB30BE40BB3
:10097000F50B661F771F881F991F1A9469F76095FA
:100980007095809590959B01AC01BD01CF010895B4
:10099000EE0FFF1F0590F491E02D0994F894FFCF1E
:1009A00022433A5C55736572735C4D6452616669AB
:1009B000756C49736C616D5C417070446174615C0D
:1009C0004C6F63616C5C41726475696E6F31355C4C
:1009D0007061636B616765735C61726475696E6F8A
:1009E0005C746F6F6C735C6176722D6763635C37E8
:1009F0002E332E302D61746D656C332E362E312DD5
:100A000061726475696E6F372F62696E2F617672DD
:100A10002D6F626A636F707922202D4F206968659F
:100A200078202D6A202E656570726F6D202D2D73D4
:100A300065742D73656374696F6E2D666C61677381
:100A40003D2E656570726F6D3D616C6C6F632C6CD3
:100A50006F6164202D2D6E6F2D6368616E67652D4B
:100A60007761726E696E6773202D2D6368616E67A2
:100A7000652D73656374696F6E2D6C6D61202E65D5
:100A80006570726F6D3D302022433A5C557365721C
:100A9000735C4D6452616669756C49736C616D5C21
:100AA000417070446174615C4C6F63616C5C54654F
:100AB0006D705C61726475696E6F5C736B65746395
:100AC0006865735C443339304538443035423944C5
:100AD0004437343637443543463130373236333590
:100AE000463731452F426C696E6B5F4174382E6911
:100AF0006E6F2E656C66222022433A5C55736572D8
:100B0000735C4D6452616669756C49736C616D5CB0
:100B1000417070446174615C4C6F63616C5C5465DE
:100B20006D705C61726475696E6F5C736B65746324
:100B30006865735C44333930453844303542394454
:100B4000443734363744354346313037323633351F
:100B5000463731452F426C696E6B5F4174382E69A0
:100B60006E6F2E65657022006469676974616C57E9
:100B700072697465203133204C4F5700000000002B
:100B8000A701CF023C0187010E0128011A010D0ABD
:020B9000000063
:00000001FF
